:020000040800F2
:1000000030090020492B0008692B00086B2B0008E1
:1000100000000000000000000000000000000000E0
:100020000000000000000000000000006D2B000830
:1000300000000000000000006F2B0008712B00087A
:10004000E3100008F3240008F72A0008032B000837
:10005000912B0008932B0008952B0008972B000884
:10006000992B00089B2B00089D2B00089F2B000854
:10007000A12B0008A32B0008A52B0008A72B000824
:10008000A92B0008AB2B0008AD2B0008AF2B0008F4
:10009000B12B0008B32B0008B52B0008B72B0008C4
:1000A000B92B0008BB2B0008BD2B0008BF2B000894
:1000B000C12B0008C32B0008C52B000838B504006D
:1000C00014D0250078356868002803D128702000F6
:1000D00000F058FB242068602068016801229143E9
:1000E0000160200000F018F9012801D1012032BD83
:1000F000606A002802D0200000F0C2F92068416840
:10010000084A0A404260206881682A22914381603F
:10011000FFE72068016801220A430260200000F026
:100120001FFA32BDFFB7FFFFF1B584B01F000646CE
:100130005036F06A202861D10C000FD0684602804A
:10014000002A0BD00498806880214901884207D199
:1001500004980069002803D1E00701D501204EE092
:10016000002575632120F06200F040FB0100684625
:10017000008830806846008870803A000498806863
:1001800080235B01984209D104980069002805D1B9
:100190002500049F0192029104001AE02000F8E774
:1001A00021780185641C11E001980090029B0022D7
:1001B0008021380000F03EFA00281BD13868002C5E
:1001C000EED12988C905C90D0185AD1C7088401E76
:1001D000708070880028E7D13800029B0199009157
:1001E0000022402100F026FA002803D12020F062EE
:1001F000002004E02020F062032000E0022005B08F
:10020000F0BDF1B584B01E0007465837B86A202803
:100210007DD10C000FD068460280002A0BD00498D4
:10022000806880214901884207D10498006900282C
:1002300003D1E00701D501206AE00025FD622220FC
:10024000B862BD6000F0D2FA0100684600883880CC
:1002500068460088788004988268FF2080235B01CC
:100260009A4205D1049A1269002A14D1294812E051
:100270007F23002A04D1049A1269002A08D10AE0D7
:1002800080204005824208D104980069002801D1ED
:10029000BB8003E03F20B88000E0BD80BA880498AE
:1002A000806880235B01984209D104980069002886
:1002B00005D12500029601911600040012E02000ED
:1002C000F8E7310001402170641C08E004980068E0
:1002D000002C808CF5D1310001402980AD1C78883C
:1002E000401E7880788800280DD002980090019BED
:1002F00000222021049800F09DF90028E6D020205B
:10030000B862032004E02020B862002000E0022050
:1003100005B0F0BDFF010000F8B50600002400257F
:1003200030680168884A0A40B168114332690A435B
:1003300071691143F2690A4302604168834A0A40C5
:10034000F168114341608168814A0A40B1691143F3
:10035000326A0A4382607F4910227F4B984208D15B
:1003600008688007800F3CD0022829D026D30328B4
:1003700021E07A4B98420DD10868C02189020140E2
:100380002FD01003814219D04000814218D0C020E4
:1003900080020FE09E4B984214D10868C0210903E7
:1003A00001401ED09003814208D04000814207D016
:1003B000C0200003814215D1022213E0042211E083
:1003C00008220FE0934988420BD09349884208D015
:1003D0009249884205D09249884202D09149884288
:1003E00000D10022904F914880210902F3698B428D
:1003F00021D1002A06D0022A18D0042A18D0082AAF
:1004000004D037E000F0B6FC010034D07268480038
:1004100051084018110000F0DDFC01001039B9420C
:1004200028D207400007400F38431BE00100EDE7EA
:1004300000F078FCE8E7002A06D0022A08D0042A57
:1004400013D0082A14D015E000F094FC002812D034
:1004500071684A08801800F0BDFC01001039B942EB
:1004600008D280B23168C86005E000F05BFCEDE7BF
:100470000800EDE70125B466F4662800F2BD00002F
:100480002421415CC90706D501684A68684B1340BE
:10049000826A1A434A602421415C890706D50168B3
:1004A0004A688A4B1340C26A1A434A602421415C5D
:1004B000490706D501684A68854B1340026B1A4309
:1004C0004A602421415C090706D501684A68814BCE
:1004D0001340426B1A434A602421415CC90606D589
:1004E00001688A687C4B1340826B1A438A6024211E
:1004F000415C890606D501688A68784B1340C26B57
:100500001A438A602421415C490611D501684A6872
:10051000734B1340026C1A434A60026C80235B03E6
:100520009A4205D14A686F4B1340426C1A434A60A5
:100530002421415C090606D501684A686A4B1340CC
:10054000806C184348607047F369FFEFFFCFFFFFEF
:10055000FFF4FFFF3010024000380140004400402B
:10056000FEB50600370078370024FC6000F03EF945
:100570000190202530680068000717D55B4800907F
:10058000019B00222904300000F054F800280DD00F
:10059000EFF31080012181F3108831680A6880230D
:1005A0009A430A6080F310887D6026E03068006816
:1005B000400725D54D480090019B0022690430007A
:1005C00000F038F800281BD0EFF31080012181F3F0
:1005D000108831680A685E4B13400B6080F3108806
:1005E000EFF31080012181F3108831688A680123BC
:1005F0009A438A6080F31088BD603C700320FEBD82
:100600007D60BD60346674663C700020FEBD0000F5
:1006100000480040004C00400050004000140140E1
:1006200000180140001C0140F0FF000000127A0099
:10063000FFFFFDFFFEB580273F01082400250600CF
:1006400001916846027002933068C06901990140C7
:100650000198814201D1012000E00020694609781B
:10066000884231D108980021C9438842ECD000F07B
:10067000BDF80299401A0899814201D3002901D19D
:100680000320FEBD306800684007DDD53068C069D2
:100690002040306803D1C0693840D5D009E00462F9
:1006A000300000F025F830007830C460057001207B
:1006B000FEBD30680762300000F01AF83000783074
:1006C0002021C1600570DBE70020FEBDFFFFFEFFBB
:1006D000FFFFFBFFFF7FFFFFFFEFFFFFFFDFFFFFDE
:1006E000FFFFEFFFFFFF9FFFFFFFF7FFFFFFFF0190
:1006F00010B5EFF31081012282F3108802681368AD
:10070000134C1C40146081F31088EFF31081012218
:1007100082F31088026893680124A343936081F3F5
:100720001088016E01290BD1EFF31081012282F3B1
:100730001088026813681024A343136081F31088A3
:1007400020218022815000210166816610BD0000B9
:10075000DFFEFFFF80B5224822490160E121490206
:10076000416000218160C16001610C2242618161B0
:10077000C16101624162FFF7A1FC002801D000F0D5
:1007800097FB01BD10B586B004001422002101A81A
:1007900000F090FB2068134988421ED11249802046
:1007A00080028A6802438A608A6802400092009A46
:1007B0000A6802430A6009680840009000980C200B
:1007C00001900220029000200390049001200590E7
:1007D00001A99020C00500F077FB06B010BD000015
:1007E00018040020004400401410024001484068F2
:1007F000704700BF00000020F8B506001AD0A04CDA
:100800003078C00718D560680C21014004290CD04D
:1008100060680C210140082949D16068C021490263
:10082000014080204002814241D12068800303D5ED
:100830007068002800D1E4E1307880071FD5F827E0
:10084000FF4360680C2101400CD060680C2101401E
:10085000082963D16068C02149020140802000025C
:1008600081425BD12068800703D5F068012800D061
:10087000C7E1206807403069C00038432060307805
:1008800000077CD50227F0690028606A68D0012142
:1008900001436162FFF7AAFF0500606A38406ED12C
:1008A000FFF7A4FF401B0228F7D90320F2BD7168AF
:1008B000012909D0B04800290CD005290AD12068A7
:1008C0008021C9020143216020688021490201433F
:1008D000216006E02168A94A0A4022602168084098
:1008E00020608027BF02706800280BD0FFF77EFFD2
:1008F0000500206838409FD1FFF778FF401B65282E
:10090000F7D3D2E7FFF772FF05002068384093D095
:10091000FFF76CFF401B6528F7D3C6E7F068002897
:1009200020680ED0012101432160FFF75FFF050021
:10093000206880079DD4FFF759FF401B0228F7D994
:10094000B3E7012188432060FFF750FF05002068CE
:10095000800794D5FFF74AFF401B0228F7D9A4E788
:10096000012188436062FFF741FF0500606A38405B
:1009700005D0FFF73BFF401B0228F7D995E73078F9
:10098000400761D50020009080204005E1690140CA
:1009900008D1E1690143E161E169084000900098F4
:1009A00001200090994F3868C0050FD43868A10D18
:1009B00001433960FFF71AFF05003868C00505D408
:1009C000FFF714FF401B6528F7D36EE7B0680128D6
:1009D00009D0002801D1206A0AE00528206A07D141
:1009E000042101432162206A01210143216206E0C2
:1009F000012188432062206A042188432062022763
:100A0000B06800280CD0FFF7F1FE0500206A3840DE
:100A100013D1FFF7EBFE401B7D498842F6D344E734
:100A2000FFF7E4FE0500206A384006D0FFF7DEFE3F
:100A3000401B77498842F6D337E70098002803D057
:100A4000E06974490140E1613078C00620D57069E1
:100A5000F825ED430422012850D1606B0243626304
:100A6000606B012101436163FFF7C0FE0700606B0B
:100A7000800707D4FFF7BAFEC01B0228F7D914E796
:100A800000100240606B0540B069C00028436063FD
:100A90000C273078800614D5606838400C2809D0BF
:100AA00060683840082843D16068790301407803C2
:100AB00081423DD1606B800303D5306A012800D0AC
:100AC0009FE0706A002800D19DE061680F40082F08
:100AD00000D181E08027BF049149022820686DD1B0
:100AE00001402160FFF782FE05002068384047D0B2
:100AF000FFF77CFE401B0228F7D9D6E60421C94344
:100B00008842606B02D101406163BBE702436263CC
:100B1000606B012188436063FFF768FE0500606B2E
:100B20008007B5D5FFF762FE401B0228F7D9BCE667
:100B3000306A0028606B0FD0802149020143616355
:100B4000FFF754FE0500606B8003BAD4FFF74EFE3A
:100B5000401B0228F7D9A8E6084901406163FFF766
:100B600045FE0500606B8003ABD5FFF73FFE401BE1
:100B70000228F7D999E600BFFFFFFBFFFFFFFEFF4A
:100B8000E06A0F218843316B0143E16260687E496E
:100B90000140F06A0843B16A014361602068790846
:100BA00001432160FFF722FE0500206838402AD16A
:100BB000FFF71CFE401B0228F7D976E601402160B2
:100BC000FFF714FE0500206838401CD0FFF70EFE2A
:100BD000401B0228F7D968E6012812D06068E16A54
:100BE000C02252020240B36A9A420AD10907090F91
:100BF000326B914205D1F02189030140F06A8142B4
:100C000001D00120F2BD0020F2BD000000700040C4
:100C100089130000FFFFFFEFF8B5040066D00091D4
:100C20005A480068C107C90F009881420CD2574842
:100C3000016801229143009A0A4302600068C107DB
:100C4000C90F0098814251D12168514D02200142C3
:100C50000CD0490704D56968E022D2000A436A60D3
:100C60006968F0229143A2680A436A6001272168FB
:100C700039402BD061680204012901D1286808E0BD
:100C8000022903D12868800109D42FE0032903D168
:100C9000686B024003D129E02A68104026D06868BA
:100CA0000322904301436960FFF7A0FD06006868D6
:100CB0000C21014060688000814207D0FFF796FD5B
:100CC000801B34498842F2D30320F2BD2F4800999B
:100CD00002683A4091420BD20168B943009A0A4334
:100CE0000260006807400098874201D00120F2BDF1
:100CF0002078400705D5686827490140E068084327
:100D0000686000F00FF825496A681206120F895CC6
:100D1000C84023490860002000F0C0F90020F2BD5F
:100D2000FFFFFFFEF0B51F490B681F481F4A0C2448
:100D30001C40082C02D00C2C1AD0F0BD0F2500BF8F
:100D40001CA49E0C2E40A45D1EA6896A0D40715DF8
:100D5000C0256D022E001E4080277F02BE4203D0B8
:100D60002B40AB4200D1100000F034F86043F0BDDE
:100D70001000F0BD0A4800680D490A4A1268520581
:100D8000520F895CC8407047FF7FC2FF00200240BD
:100D90000010024089130000FFF8FFFF382B000805
:100DA0000C0000200410024000127A00006CDC02EB
:100DB000882B000802030405060708090A0B0C0D1E
:100DC0000E0F10100102030405060708090A0B0C98
:100DD0000D0E0F10094214D088420FD30122030CCC
:100DE00001D100041204002300185B418B4200D3A0
:100DF0005B1A5241F8D3190010007047010000201F
:100E0000704708B500F06CF908BD80B500F06AF9CC
:100E100000F010F800F076F900F0BAF9FFF79AFC4C
:100E200000F0DEF900F0CEFA20219020C00500F09D
:100E30001EF9F9E738B598B0342200210BA800F06C
:100E400039F810220021684600F034F81C220021F5
:100E500004A800F02FF802240B9401200E9010211A
:100E60000F911494C1031591A02189031691179035
:100E70000BA8FFF7C1FC002801D000F019F80720EB
:100E80000090019400250295039501216846FFF723
:100E9000C3FE002801D072B6FEE70494079504A8AB
:100EA00000F0E8FB002801D072B6FEE719B030BDB3
:100EB00072B6FEE710B50400080011000200200021
:100EC00000F076FC200010BDFFB500220F23029336
:100ED0002DE0052403E06A4CA042FAD104246D46BB
:100EE0002D78AC403443019D2C60664CA668DC43F1
:100EF00026404D68ED0200D51E43624DAE60EE689F
:100F000026404F68BF0200D51E43EE606E68264043
:100F10004F68BF0300D51E436E602E6834404E6894
:100F2000F60302D526001C0034432C60521C0B68CB
:100F30001C00D44000D193E0012494402340F5D01C
:100F400055000327AF40FE4301964E68B707BF0F19
:100F5000012F03D0B607B60F022E0ED18768019E6F
:100F60003E40CF68AF40374387604668A6434C6831
:100F7000E706FF0F97403743476094006E46747052
:100F80000C79A407A40F032C26D0C468019E264028
:100F90008C68AC403443C4600C79A407A40F022CC5
:100FA0001AD1D408A4000419266A03966E467778ED
:100FB0001C263E406F463E70039EB446029F6E461E
:100FC0003678B7406646BE43B4460F696E463678FB
:100FD000B74066463743276207680324019E3E40B8
:100FE0004F682740BC462F006546BD40354305602D
:100FF0004D6826042E4099D00125234E36682E4395
:10100000214F3E603E682E400196019E1F4E97087C
:10101000BF00F6190196366803966E4677780C265F
:101020003E406F463E70039EB446029F6E46367841
:10103000B7406646BE439027FF05B84201D1002461
:101040004DE7134FB84201D1012448E7114DA842A2
:1010500001D1022443E7104DA84200D03BE73EE710
:10106000FFBD002A01D081617047816270474269EB
:101070000B0013401B04914319438161704700002A
:101080000010004800040140181002400800014010
:101090000004004800080048000C004838B505006E
:1010A0000D4CFA2080002178FFF794FE01000B48D8
:1010B0000068FFF78FFE00F0A2FB00280AD1042D84
:1010C00008D2002229000020C04300F094FBA56054
:1010D000002032BD012032BD000000200C000020A5
:1010E0007047FEE780B50648016810220A43026097
:1010F0000020FFF7D3FF00F09DFB002002BD0000A1
:101100000020024038B586B01422002101A8FFF764
:10111000D1FE802109031C4802680A43026002686C
:101120001140009100998021C90302680A430260BE
:1011300002681140009100998021890202680A43E7
:10114000026000680140009100989024E4050022AC
:1011500020212000FFF785FF80208001019084205E
:10116000800302900025039501A90848FFF7ACFE13
:1011700020200190012002900395049501A92000F0
:10118000FFF7A2FE07B030BD14100240000800486F
:1011900080B5104810490160002181804161816162
:1011A0000121016200F05EFB002801D0FFF780FE04
:1011B00001BD81B000680849884208D14020074934
:1011C0000A6802430A60096808400090009801B06C
:1011D00070470000E004002000300240141002407C
:1011E00080B500F0BEFB34203E49086000F0C8FB2B
:1011F00001BD38B584B004000025009500F0B1FBB6
:10120000019502943848001BC00A0390694601A862
:1012100000F034FC040000F0B3FB200000D00120FB
:1012200005B030BDF8B504000D00170000F099FBC3
:101230000095002501E0241D6D1CBD4215D22B48F0
:10124000844212D20098A900461832680023210077
:10125000022000F045FB002805D120683168884253
:10126000E9D00220F2BD0320F2BD00F089FB00208E
:10127000F2BD80B586B000F074FB684600F027FD33
:1012800000F07EFB02981A49814301D0022000E061
:10129000002007B000BD10B58CB0040006A800F017
:1012A00016FD601E8041C00F01900120009068462D
:1012B000AA21017306A9497B417308980C4C044389
:1012C00000F04FFB00F063FB00F025FC010003D1B0
:1012D0000294684600F042FC002800D004200CB0C4
:1012E00010BD00000C20024000000408FDFF0308B0
:1012F000F0FF0F001FB50B22002101A8FFF7DAFD58
:1013000000200090814C200000F0D4FD684600F0E1
:1013100012FE002820D120003C3000F0CBFD7C489C
:1013200000F0C8FD009901A800F046FD81A000F082
:10133000C1FD01A800F0BEFD81A000F0BBFD00BF13
:1013400082A000F0B7FDBFF34F8F7248724908606A
:10135000BFF34F8F00BFFDE7052802D1200090307A
:1013600009E0042802D100BF7EA004E0022801D1D8
:1013700083A000E088A000F09DFD1FBD80B5002087
:10138000694608708CA000F095FD0023DB43012224
:1013900069466248FEF735FF68460078432810D159
:1013A000C02292018BA15E4800F0CEFE6946087013
:1013B00068460078002801D05A4800E08BA000F071
:1013C00079FD01BDF8B5002069460870564C200033
:1013D00000F070FD20004C3000F06CFD25009835C9
:1013E000280000F067FD2000E43000F063FD2800D5
:1013F00000F060FD98204000201800F05BFD200008
:1014000000F058FD81A000F055FD484DFFF731FF79
:10141000A860434E414F01E0FFF76CFFBE20400043
:10142000201800F047FDDE204000201800F042FDAB
:10143000FE204000201800F03DFD8F208000201885
:1014400000F038FDA868002801D09F2000E0AF2000
:101450008000201800F02EFDBF208000201800F032
:1014600029FD3868816908220A4382618169102256
:101470000A4382610023DB43012269463800FEF7FC
:10148000C0FE684600783128C6D03DD3332806D048
:1014900002D3342818D037E0FFF770FFBEE7CF2023
:1014A0008000201800F006FD3068214901408020AE
:1014B00080058142B2D1706868602860306880F32E
:1014C000088828688047A9E7A868002814D0012068
:1014D000FFF7E1FE002809D14EA000F0EBFC00BFB1
:1014E00054A000F0E7FC00F061FA97E7D8208000F4
:1014F000201800F0DFFC91E7FFF7CDFE002801D1B6
:1015000054A0EAE7E420F2E7EF20F0E7182900080A
:10151000A00400200400FA050CED00E018040020EF
:1015200000000108542A00081C25000804050020BA
:101530000000FE2F0A0D2053697A653A2000000052
:101540002042797465730D0A000000002D2D2D2DA9
:101550002D2D2D2D2D2D2D2D2D2D2D2D2D2D2D0ADE
:10156000000000000A0A0D566572696669636174BD
:10157000696F6E206661696C6564210A0D00000068
:101580000D0A0A41626F7274656420627920757376
:1015900065722E0A0D0000000A0D4661696C6564D3
:1015A00020746F20726563656976652074686520B4
:1015B00066696C65210A0D000A0A0D53656C656346
:1015C0007420526563656976652046696C650A0D0D
:1015D0000000000055706C6F61646564466C617357
:1015E00068496D6167652E62696E00000A0D466983
:1015F0006C652075706C6F616465642073756363DE
:1016000065737366756C6C79200A0D000D0A0D0AFE
:101610000000000057726974652050726F74656332
:1016200074696F6E2064697361626C65642E2E2E1E
:101630000D0A000053797374656D2077696C6C2016
:101640006E6F7720726573746172742E2E2E0D0A80
:101650000000000057726974652050726F746563F2
:1016600074696F6E20656E61626C65642E2E2E0D3E
:101670000A000000F8B50400444D2068C00356D5A8
:1016800000200090802040052968014008D1296889
:1016900001432960296808400090009801200090CB
:1016A0003B4F3868C00510D43868A90D0143396034
:1016B000FFF79CF806003868C00506D4FFF796F8D7
:1016C000801B6528F7D30320F2BDC0208000696825
:1016D0000140304F00291ED06268104081421AD06C
:1016E000686838406968802252020A436A60696803
:1016F000294A0A406A606860C0070CD5FFF776F88F
:1017000006006868800706D4FFF770F8801B23493D
:101710008842F6D3D7E76868074060683843686056
:101720000098002803D028681D49014029602078CE
:10173000C00705D5686903218843A1680143696131
:101740002078800705D5686916490140E06808439C
:1017500068612068400305D5686913490140206924
:10176000084368612078800605D5686910218843A0
:101770006169014369612068400505D568694021B8
:101780008843A169014369610020F2BD1C10024039
:1017900000700040FFFCFFFFFFFFFEFF8913000009
:1017A000FFFFFFEFFFFFFCFFFFFFF3FF002200BF83
:1017B000094202D0491E4254FCD1704710B5C20004
:1017C00018231340FF249C40E2438907090E9940E7
:1017D000030004D414489B089B00C01806E0134B78
:1017E0000007000F083880088000181803681A40A6
:1017F0001143016010BD80B5FFF7E0FF01BD10B5DA
:10180000401E80214904884201D3012010BD084CAC
:10181000606003210020C043FFF7D0FF0020A060DC
:101820000721216010BD000000E400E01CED00E095
:1018300010E000E081B0012009490A6802430A6013
:101840000A68104000900098802040054A680243D2
:101850004A60496808400090009801B0704700BF96
:101860001810024010B5040020D0607F002803D17A
:1018700020772000FFF79DFC022060772079002868
:101880000DD116482168486120688168182291436B
:101890008160607900280BD10020C04309E0E26834
:1018A000A168200000F0E8FD0028F2D0012010BD62
:1018B000206921680861206881686022914362691B
:1018C0000A4382602068816880229143A2690A43AA
:1018D000826001206077002010BD0000B71DC104A8
:1018E000F1B582B00F0014001D005D48007E012894
:1018F00001D10220FEBD012659490E764A4800F06A
:101900006BF8010029D10299012901D1012204E0DB
:10191000022901D1022200E004223B0026002F0010
:1019200000931500002400E0641CAC4215DA30007E
:101930003900220100F0CEFD81B2009862008018CB
:1019400000F03FF8384800F047F84649096801229E
:101950009143444A11600100E6D00021404A1176CB
:10196000FEBD002041498022CB68134007D0404B88
:101970000B60404B0B60C9680A4000D001207047E3
:101980003848016880220A430260002070473A48C4
:101990008168420D114203D1354B0360354B036022
:1019A0000A40100000D00120C0B2704780B52D4819
:1019B0000168802292010A4302601B4800F00CF883
:1019C00002BD10B50022264BDA61264A13680124B5
:1019D0001C431460018010BD70B50500FEF706FFC2
:1019E0000600214C2068C0070CD50020C04385426A
:1019F000F8D0002D04D0FEF7F9FE801B8542F1D20D
:101A0000032070BD20202168014000D020602068A4
:101A1000C00602D42068400703D500F007F8012073
:101A200070BD002070BD000050C3000030B5002222
:101A30000B4810230C490C681C4004D0C2690224D6
:101A40001443C461102204230C681C4006D0C469EE
:101A500001252543C5611000042202430A6030BD00
:101A600010050020102002400C20024004200240FB
:101A700023016745AB89EFCD08200240F3B581B063
:101A8000012101269F4C227E012A01D10220FEBDA8
:101A900000902176B34D9C4F0098006801280FD12B
:101AA0003800FFF799FF002831D100F01EF9380007
:101AB000FFF792FF0600286804218843286026E08B
:101AC0003800FFF789FF002821D102980021C9437F
:101AD000016000994E680290012001E091027618A1
:101AE00000998968C902009A526889188E420DD2FD
:101AF000300000F046F93800FFF76EFF2968022237
:101B0000914329600100E9D002990E60060000208F
:101B100020763000FEBD70B500F026F904007A4D45
:101B20002800FFF759FF010017D100207549C8614F
:101B30008C4E3068202101433160306840210143E0
:101B400031602800FFF748FF31682022914331605F
:101B5000010002D1E0B200F0D9F870BDF0B585B057
:101B6000010001220120674F3B7E012B01D10220A1
:101B7000ABE000913A768A4C7A4D634E0099096841
:101B80000A405BD00098806800994968012929695A
:101B90000AD18143C8B204900804000E03900802E1
:101BA000000E0290080E09E00843C1B2049101043E
:101BB000090E03910102090E0291000E01903000FE
:101BC000FFF70AFF010037D10020F861FFF7A3FFFC
:101BD000010031D1296810220A432A600499FF29A3
:101BE00007D0E0880140E1803000FFF7F5FE0100FA
:101BF00008D10399FF2907D02089014021813000B5
:101C0000FFF7EAFE010008D10299FF2907D0608999
:101C1000014061813000FFF7DFFE010008D101992A
:101C2000FF2905D0A0890140A1813000FFF7D4FE33
:101C30002968102291432960010044D10099097854
:101C4000890705D50098007B00F060F801003AD1C3
:101C50000099097849071AD50098407B69460871B0
:101C60003000FFF7B9FE01000FD10020F8612868AD
:101C70001021014329606846007920803000FFF779
:101C8000ABFE296810229143296001001BD1009905
:101C90000978090717D50098047D00690090300085
:101CA000FFF79AFE01000ED10020F861286810218C
:101CB00001432960009804803000FFF78DFE2968F9
:101CC0001022914329600021397605B0F0BD38B566
:101CD000040007202060334D6868A06000F044F8DD
:101CE00020732868000A607331BD00200549C8616F
:101CF0001C48016804220A430260016840220A432A
:101D0000026070471005002050C3000070B5040049
:101D1000254D2800FFF760FE010021D10020234956
:101D2000C861104E30682021014331603068402185
:101D3000014331602800FFF74FFE316820229143B4
:101D4000316001000CD13068102101433160184826
:101D500004802800FFF740FE316810229143316073
:101D600070BD0000102002400E48016806200840A7
:101D700001D1AA207047400701D5CC207047BB2075
:101D800070470021094AD1610A490A6802231343B6
:101D90000B6048600868402202430A6070470000F8
:101DA00002F8FF1F1C20024050C300001005002055
:101DB00000F8FF1F10200240FCB54A4C0025002609
:101DC0000A270190009100982100FFF703F83030B6
:101DD000019948556D1C00982100FEF7FBFF00910A
:101DE00020000A21FEF7F6FF040001984019401E6A
:101DF0000078302803D1002E01D1002500E0761CA8
:101E00007F1EE0D1F3BDF2B50200002400200021C6
:101E10001378302B28D15378782B01D0582B23D12D
:101E20000226935D002B3CD01D002C00413C062C6B
:101E300007D32F00613F062F03D32F00303F0A2F17
:101E40000ED2303D0A2D01D2303B04E0062C01D2E7
:101E5000373B00E0573B0901C918761C0A2EE0D930
:101E6000925D002A1DD0F2BD009B155D002D17D09C
:101E70006B2D01D04B2D01D1002C16D16D2D01D031
:101E80004D2D01D1002C13D12E00303E0A2EEAD266
:101E90000A267143303D4919641C0A2CE5D9F2BD6C
:101EA0000093009801600120F2BD88021860FAE7F3
:101EB0000805FBE780B50100002200E0521C90B24B
:101EC000085C0028FAD1642392B20748FEF72CF987
:101ED00001BD01B56423012269460348FEF724F9D8
:101EE00002BD000000CA9A3B1804002010B58022F1
:101EF00052001143130240004900114200D0401C1F
:101F0000184202D004008A4860401942F3D080B2DF
:101F100010BD38B504000020651803E02178FFF7F4
:101F2000E5FF641CAC42F9D30021FFF7DFFF00217D
:101F3000FFF7DCFF32BDF1B58AB0002002900490BB
:101F400000257C4803907C4E002769468F7005E091
:101F50001820FFF7BEFF1820FFF7BBFFFA239B00F6
:101F6000012200A9491C7548FEF74BF9010061D117
:101F700068464078012847D0022823D0042853D04F
:101F800018280BD0412801D061283FD168464078FD
:101F900030701820FFF79DFF18200FE0FA239B00F8
:101FA000012200A9491C6548FEF72BF900282DD114
:101FB00068464078182829D130700620FFF789FF3D
:101FC0000225B0E08024E4003070FA239B00221D3B
:101FD00092B2B11C5948FEF714F901002AD1B07829
:101FE000F178FF224A40904213D130190179090259
:101FF0004079081809902100301DFFF78AFF0999E0
:10200000884206D102971AE08024DDE768464078CE
:1020100030700498002802D00298401C0290029868
:10202000062895D2432097E7307002970620FFF7E5
:1020300050FF75E00028F8D00228AAD0E9E7B07870
:1020400069468978884201D0152085E7002948D162
:102050003079002841D00021301D02E01370401C6F
:10206000491C374A52180378002B01D04029F5D378
:1020700000211170401C02E01370401C491C05AA8D
:1020800052180378202B01D01029F5D3177001A91D
:1020900005A8FFF7B8FE0A9800682A49884211D3BC
:1020A000182069460870254C80235B03012220001C
:1020B000FEF73AF880235B03012269462000FEF711
:1020C00033F805251B48FFF794F801980A99086032
:1020D0000620FFF7FEFE43200EE00620FFF7F9FE84
:1020E00021E0A208311D0398FFF79CF8002806D1D3
:1020F0000398001903900620FFF7EBFE06E0182076
:10210000FFF7E7FE1820FFF7E4FE04256846807815
:10211000401C6946887001200490280000D11DE70A
:10212000280000D111E728000BB0F0BD000000002E
:1021300021100000000001081000002018040020F9
:10214000A004002002300000F1B588B000260196FE
:102150006B469E70012005900024C3480123437004
:102160008470FF23C370002501E003716D1C4B5D7B
:10217000BD484019002B01D0402DF6D306920471C2
:10218000069902A8FFF718FE6D1D02E00170641C9D
:102190006D1C02A8015DB44840190029F6D1842DB8
:1021A00003D28421491BFFF701FB019F6846847815
:1021B000AD4D80235B038322691CAC48FDF7B4FF5F
:1021C0008021281DFFF7A5FE0500280AFFF781FEE4
:1021D000E8B2FFF77EFE80235B0301226946A34835
:1021E000FEF70FF8002825D168460078062801D1AF
:1021F000012720E06846007818281CD180235B0363
:10220000012269469948FDF7FCFF002813D1684672
:10221000007818280FD1022000F06CF9934800686C
:10222000816908220A438261816910220A4382611E
:10223000022400E0761C042E04D8002F03D12000D5
:1022400001D1B5E701246846847008980290069E83
:1022500004E06846877005950294039E002E00D125
:1022600084E068468078002800D07FE005988021CF
:10227000C9008E4202D30A00022305E08022802199
:10228000802E00D831000123774C6370234698706C
:10229000C0B2C443DC70029C0425081D03E027780B
:1022A0005F55641C6D1C8542F9D38A4207D3511ACD
:1022B000121D904203D21A221818FFF779FA002053
:1022C000019069460870049068468778059D029CD5
:1022D000039603988021C900884201D3029101E04E
:1022E000802002908B02029AD21C92B260495F4811
:1022F000FDF71AFF02995F48FFF70BFE0600300A50
:10230000FFF7E7FDF0B2FFF7E4FD80235B03012256
:1023100069465648FDF775FF002817D168460078D2
:10232000062813D1012001900298241803998842AD
:1023300009D203980299401A03900C2D01D1052768
:1023400007E06D1C05E00020039002E00498401CAB
:1023500004900498042806D80198002800D1380079
:1023600000D076E7B5E70120694688700026694607
:102370000E700025684684783C4F200035D104203B
:10238000FFF7A7FD80235B03012269463846FDF76E
:1023900038FF002824D168460078062801D101269C
:1023A0001FE06846007818281BD180235B030122B8
:1023B00069463800FDF725FF002812D168460078ED
:1023C00018280ED1022000F095F83868816908229B
:1023D0000A438261816910220A438261022400E07B
:1023E0006D1C042D3ED8002EC7D02500280636D1FE
:1023F0001D4C012060700020A070FF20E070802143
:10240000201DFFF7D3F98026760333008322611C59
:102410003800FDF789FE8021201DFFF77AFD0400BA
:10242000200AFFF756FDE0B2FFF753FD330001220B
:1024300069463800FDF7E5FE002810D168460078AF
:1024400018280CD1022000F055F83868816908225C
:102450000A438261816910220A4382610225E8B23F
:1024600009B0F0BD0125FAE7100000201804002093
:102470001100002014000020F4B502000B00002120
:102480001F2401252B4223D02000441E002805D004
:102490001F2020401F00C7402F40F5D01800009B90
:1024A0001E0007D0082B11D0102B0CD0182B0FD1E9
:1024B000072C0DD21268506190681824A043034382
:1024C00093600800F2BD082CF4D301E0102CF1D386
:1024D0000121F6E7D2B2203A03D30800D040002110
:1024E00070472032D141D04048409140D1404840CF
:1024F0007047FEE738B50500FEF778F904000020C4
:10250000C043854202D0044800782D18FEF76EF9CA
:10251000001BA842FAD331BD000000200D0A3D3D4A
:102520003D3D3D3D3D3D3D3D3D3D3D3D3D3D3D3DDB
:102530003D3D3D3D3D3D3D3D3D3D3D3D3D3D3D3DCB
:102540003D3D3D3D3D3D3D3D3D3D3D3D3D3D3D3DBB
:102550003D3D3D3D3D3D3D3D3D3D3D3D3D3D3D3DAB
:102560003D3D3D3D000000000D0A3D202020202083
:1025700020202020202020202028432920434F50A5
:1025800059524947485420323031362053544D690E
:1025900063726F656C656374726F6E69637320201C
:1025A0002020202020202020202020202020203D0E
:1025B000000000000D0A3D202020202020202020A7
:1025C000202020202020202020202020202020200B
:1025D00020202020202020202020202020202020FB
:1025E00020202020202020202020202020202020EB
:1025F00020202020202020202020203D000000003E
:102600000D0A3D202053544D33324631787820490D
:102610006E2D4170706C69636174696F6E205072C9
:102620006F6772616D6D696E67204170706C696370
:102630006174696F6E20202856657273696F6E2011
:10264000312E302E3029203D000000000D0A3D20A3
:10265000202020202020202020202020202020207A
:10266000202020202020202020202020202020206A
:1026700020204279204D4344204170706C69636191
:1026800074696F6E205465616D2020202020202009
:102690002020203D000000000D0A3D3D3D3D3D3D18
:1026A0003D3D3D3D3D3D3D3D3D3D3D3D3D204D6143
:1026B000696E204D656E75203D3D3D3D3D3D3D3D86
:1026C0003D3D3D3D3D3D3D3D3D3D3D3D3D3D3D3D3A
:1026D0003D3D3D3D0D0A0A002020446F776E6C6F32
:1026E000616420696D61676520746F20746865207E
:1026F000696E7465726E616C20466C617368202D22
:102700002D2D2D2D2D2D2D2D2D2D2D2D2D2D2D2DF9
:1027100020310D0A0A000000202055706C6F6164A2
:1027200020696D6167652066726F6D207468652031
:10273000696E7465726E616C20466C617368202DE1
:102740002D2D2D2D2D2D2D2D2D2D2D2D2D2D2D2DB9
:1027500020320D0A0A000000202045786563757458
:102760006520746865206C6F6164656420617070B9
:102770006C69636174696F6E202D2D2D2D2D2D2DAB
:102780002D2D2D2D2D2D2D2D2D2D2D2D2D2D2D2D79
:1027900020330D0A0A000000202044697361626C36
:1027A00065207468652077726974652070726F7433
:1027B000656374696F6E202D2D2D2D2D2D2D2D2DE2
:1027C0002D2D2D2D2D2D2D2D2D2D2D2D2D2D2D2D39
:1027D00020340D0A0A0000002020456E61626C65FD
:1027E000207468652077726974652070726F7465F3
:1027F0006374696F6E202D2D2D2D2D2D2D2D2D2DDA
:102800002D2D2D2D2D2D2D2D2D2D2D2D2D2D2D2DF8
:1028100020340D0A0A0000003D3D3D3D3D3D3D3D5B
:102820003D3D3D3D3D3D3D3D3D3D3D3D3D3D3D3DD8
:102830003D3D3D3D3D3D3D3D3D3D3D3D3D3D3D3DC8
:102840003D3D3D3D3D3D3D3D3D3D3D3D3D3D3D3DB8
:102850003D3D0D0A0A0000005374617274207072CD
:102860006F6772616D20657865637574696F6E2E30
:102870002E2E2E2E2E0D0A0A000000004572726FB9
:10288000723A20466C6173682077726974652075AE
:102890006E2D70726F74656374696F6E2066616906
:1028A0006C65642E2E2E0D0A000000004572726FBA
:1028B000723A20466C617368207772697465207083
:1028C000726F74656374696F6E206661696C6564AC
:1028D0002E2E2E0D0A000000496E76616C69642070
:1028E0004E756D6265722021203D3D3E2054686525
:1028F000206E756D6265722073686F756C642062FE
:10290000652065697468657220312C20322C203373
:10291000206F7220340D000057616974696E672062
:10292000666F72207468652066696C6520746F201C
:1029300062652073656E74202E2E2E2028707265BD
:1029400073732027612720746F2061626F7274296E
:102950000A0D00000A0A0D2050726F6772616D6DDA
:10296000696E6720436F6D706C6574656420537584
:10297000636365737366756C6C79210A0D2D2D2D5B
:102980002D2D2D2D2D2D2D2D2D2D2D2D2D2D2D2D77
:102990002D2D2D2D2D2D2D2D2D2D2D2D2D0D0A20B7
:1029A0004E616D653A2000000A0A0D546865206981
:1029B0006D6167652073697A65206973206869674E
:1029C000686572207468616E2074686520616C6C43
:1029D0006F776564207370616365206D656D6F72DC
:1029E00079210A0D0000000070B40123002413E0D7
:1029F0000168001D194202D04D466918491E0C603D
:102A0000091D121F042AFAD20D00960701D50C8069
:102A1000AD1C1A4000D02C700268001D002AE7D1BE
:102A200070BC704730B401220EE00368C3184468DC
:102A30000830144202D04D462C19641E1D682560D2
:102A40001B1D241D091FF9D10168001D0029ECD1AF
:102A500030BC70470A0D4572726F72204F63637508
:102A600072726564207768696C65205472616E7358
:102A70006D697474696E672046696C650A0D0000A3
:102A800010B5074979441831064C7C44163404E0EB
:102A9000081D0A68891888470100A142F8D110BDB5
:102AA000080000002800000041FFFFFF2005000093
:102AB00010000020000000006DFFFFFF100000006C
:102AC000B8000000000000200000000000F00DF839
:102AD000002801D0FFF7D4FF00BF00BF002000BFD7
:102AE00000BFFEF792F900F002F80120704780B5B0
:102AF00000F002F801BDFEE70746384600F002F894
:102B0000FBE7FEE780B500BF00BF024A11001820B6
:102B1000ABBEFBE7260002000548014603B4684649
:102B200080F3098800BF00BF00BF00BFFFF7CEFFE2
:102B3000A5EDF5FE70470000000000000000000059
:102B400001020304060708090148804701480047BD
:102B5000352B0008192B00080248416802788918B3
:102B60004160704700000020FEE7FEE770477047B5
:102B700080B5FFF7F1FF01BD01000000000000007B
:102B80000400000000127A000000000001020304AB
:102B9000FEE7FEE7FEE7FEE7FEE7FEE7FEE7FEE70D
:102BA000FEE7FEE7FEE7FEE7FEE7FEE7FEE7FEE7FD
:102BB000FEE7FEE7FEE7FEE7FEE7FEE7FEE7FEE7ED
:062BC000FEE7FEE7FEE760
:0400000508002B19AB
:00000001FF
